{
  "contractName": "Migratable",
  "abi": [
    {
      "anonymous": false,
      "inputs": [
        {
          "indexed": false,
          "name": "contractName",
          "type": "string"
        },
        {
          "indexed": false,
          "name": "migrationId",
          "type": "string"
        }
      ],
      "name": "Migrated",
      "type": "event"
    },
    {
      "constant": true,
      "inputs": [
        {
          "name": "contractName",
          "type": "string"
        },
        {
          "name": "migrationId",
          "type": "string"
        }
      ],
      "name": "isMigrated",
      "outputs": [
        {
          "name": "",
          "type": "bool"
        }
      ],
      "payable": false,
      "stateMutability": "view",
      "type": "function"
    },
    {
      "constant": false,
      "inputs": [],
      "name": "initialize",
      "outputs": [],
      "payable": false,
      "stateMutability": "nonpayable",
      "type": "function"
    }
  ],
  "bytecode": "0x608060405234801561001057600080fd5b506106c0806100206000396000f30060806040526004361061004c576000357c0100000000000000000000000000000000000000000000000000000000900463ffffffff1680638129fc1c14610051578063c0bac1a814610068575b600080fd5b34801561005d57600080fd5b5061006661012f565b005b34801561007457600080fd5b50610115600480360381019080803590602001908201803590602001908080601f0160208091040260200160405190810160405280939291908181526020018383808284378201915050505050509192919290803590602001908201803590602001908080601f0160208091040260200160405190810160405280939291908181526020018383808284378201915050505050509192919290505050610500565b604051808215151515815260200191505060405180910390f35b6040805190810160405280600a81526020017f4d696772617461626c65000000000000000000000000000000000000000000008152506040805190810160405280600581526020017f312e322e310000000000000000000000000000000000000000000000000000008152506101da826040805190810160405280600b81526020017f696e697469616c697a65640000000000000000000000000000000000000000008152506105eb565b6101e482826105eb565b7fdd117a11c22118c9dee4b5a67ce578bc44529dce21ee0ccc439588fbb9fb4ea38282604051808060200180602001838103835285818151815260200191508051906020019080838360005b8381101561024b578082015181840152602081019050610230565b50505050905090810190601f1680156102785780820380516001836020036101000a031916815260200191505b50838103825284818151815260200191508051906020019080838360005b838110156102b1578082015181840152602081019050610296565b50505050905090810190601f1680156102de5780820380516001836020036101000a031916815260200191505b5094505050505060405180910390a160016000836040518082805190602001908083835b6020831015156103275780518252602082019150602081019050602083039250610302565b6001836020036101000a0380198251168184511680821785525050505050509050019150509081526020016040518091039020826040518082805190602001908083835b602083101515610390578051825260208201915060208101905060208303925061036b565b6001836020036101000a038019825116818451168082178552505050505050905001915050908152602001604051809103902060006101000a81548160ff02191690831515021790555060016000836040518082805190602001908083835b60208310151561041457805182526020820191506020810190506020830392506103ef565b6001836020036101000a03801982511681845116808217855250505050505090500191505090815260200160405180910390206040805190810160405280600b81526020017f696e697469616c697a65640000000000000000000000000000000000000000008152506040518082805190602001908083835b6020831015156104b2578051825260208201915060208101905060208303925061048d565b6001836020036101000a038019825116818451168082178552505050505050905001915050908152602001604051809103902060006101000a81548160ff0219169083151502179055505050565b600080836040518082805190602001908083835b6020831015156105395780518252602082019150602081019050602083039250610514565b6001836020036101000a0380198251168184511680821785525050505050509050019150509081526020016040518091039020826040518082805190602001908083835b6020831015156105a2578051825260208201915060208101905060208303925061057d565b6001836020036101000a038019825116818451168082178552505050505050905001915050908152602001604051809103902060009054906101000a900460ff16905092915050565b6105f58282610500565b151515610690576040517f08c379a00000000000000000000000000000000000000000000000000000000081526004018080602001828103825260328152602001807f52657175657374656420746172676574206d6967726174696f6e20494420686181526020017f7320616c7265616479206265656e2072756e000000000000000000000000000081525060400191505060405180910390fd5b50505600a165627a7a72305820efd6ef89f2142169a00da058d98891ab006f2238b46b52fb5cf6d780604aee020029",
  "source": "pragma solidity ^0.4.24;\n\n\n/**\n * @title Migratable\n * Helper contract to support intialization and migration schemes between\n * different implementations of a contract in the context of upgradeability.\n * To use it, replace the constructor with a function that has the\n * `isInitializer` modifier starting with `\"0\"` as `migrationId`.\n * When you want to apply some migration code during an upgrade, increase\n * the `migrationId`. Or, if the migration code must be applied only after\n * another migration has been already applied, use the `isMigration` modifier.\n * This helper supports multiple inheritance.\n * WARNING: It is the developer's responsibility to ensure that migrations are\n * applied in a correct order, or that they are run at all.\n * See `Initializable` for a simpler version.\n */\ncontract Migratable {\n  /**\n   * @dev Emitted when the contract applies a migration.\n   * @param contractName Name of the Contract.\n   * @param migrationId Identifier of the migration applied.\n   */\n  event Migrated(string contractName, string migrationId);\n\n  /**\n   * @dev Mapping of the already applied migrations.\n   * (contractName => (migrationId => bool))\n   */\n  mapping (string => mapping (string => bool)) internal migrated;\n\n  /**\n   * @dev Internal migration id used to specify that a contract has already been initialized.\n   */\n  string constant private INITIALIZED_ID = \"initialized\";\n\n\n  /**\n   * @dev Modifier to use in the initialization function of a contract.\n   * @param contractName Name of the contract.\n   * @param migrationId Identifier of the migration.\n   */\n  modifier isInitializer(string contractName, string migrationId) {\n    validateMigrationIsPending(contractName, INITIALIZED_ID);\n    validateMigrationIsPending(contractName, migrationId);\n    _;\n    emit Migrated(contractName, migrationId);\n    migrated[contractName][migrationId] = true;\n    migrated[contractName][INITIALIZED_ID] = true;\n  }\n\n  /**\n   * @dev Modifier to use in the migration of a contract.\n   * @param contractName Name of the contract.\n   * @param requiredMigrationId Identifier of the previous migration, required\n   * to apply new one.\n   * @param newMigrationId Identifier of the new migration to be applied.\n   */\n  modifier isMigration(string contractName, string requiredMigrationId, string newMigrationId) {\n    require(isMigrated(contractName, requiredMigrationId), \"Prerequisite migration ID has not been run yet\");\n    validateMigrationIsPending(contractName, newMigrationId);\n    _;\n    emit Migrated(contractName, newMigrationId);\n    migrated[contractName][newMigrationId] = true;\n  }\n\n  /**\n   * @dev Returns true if the contract migration was applied.\n   * @param contractName Name of the contract.\n   * @param migrationId Identifier of the migration.\n   * @return true if the contract migration was applied, false otherwise.\n   */\n  function isMigrated(string contractName, string migrationId) public view returns(bool) {\n    return migrated[contractName][migrationId];\n  }\n\n  /**\n   * @dev Initializer that marks the contract as initialized.\n   * It is important to run this if you had deployed a previous version of a Migratable contract.\n   * For more information see https://github.com/zeppelinos/zos-lib/issues/158.\n   */\n  function initialize() isInitializer(\"Migratable\", \"1.2.1\") public {\n  }\n\n  /**\n   * @dev Reverts if the requested migration was already executed.\n   * @param contractName Name of the contract.\n   * @param migrationId Identifier of the migration.\n   */\n  function validateMigrationIsPending(string contractName, string migrationId) private {\n    require(!isMigrated(contractName, migrationId), \"Requested target migration ID has already been run\");\n  }\n}\n",
  "sourcePath": "zos-lib/contracts/migrations/Migratable.sol",
  "compiler": {
    "name": "solc",
    "version": "0.4.24+commit.e67f0147.Emscripten.clang"
  },
  "schemaVersion": "2.0.1",
  "updatedAt": "2018-07-20T20:17:10.886Z"
}