{
  "contractName": "Mkt",
  "abi": [
    {
      "constant": true,
      "inputs": [],
      "name": "owner",
      "outputs": [
        {
          "name": "",
          "type": "address"
        }
      ],
      "payable": false,
      "stateMutability": "view",
      "type": "function"
    },
    {
      "constant": true,
      "inputs": [
        {
          "name": "contractName",
          "type": "string"
        },
        {
          "name": "migrationId",
          "type": "string"
        }
      ],
      "name": "isMigrated",
      "outputs": [
        {
          "name": "",
          "type": "bool"
        }
      ],
      "payable": false,
      "stateMutability": "view",
      "type": "function"
    },
    {
      "constant": true,
      "inputs": [
        {
          "name": "",
          "type": "bytes32"
        }
      ],
      "name": "register",
      "outputs": [
        {
          "name": "user",
          "type": "address"
        },
        {
          "name": "owner",
          "type": "address"
        }
      ],
      "payable": false,
      "stateMutability": "view",
      "type": "function"
    },
    {
      "constant": false,
      "inputs": [
        {
          "name": "newOwner",
          "type": "address"
        }
      ],
      "name": "transferOwnership",
      "outputs": [],
      "payable": false,
      "stateMutability": "nonpayable",
      "type": "function"
    },
    {
      "anonymous": false,
      "inputs": [
        {
          "indexed": true,
          "name": "wallet",
          "type": "address"
        },
        {
          "indexed": false,
          "name": "value",
          "type": "uint256"
        }
      ],
      "name": "Withdrawal",
      "type": "event"
    },
    {
      "anonymous": false,
      "inputs": [
        {
          "indexed": true,
          "name": "id",
          "type": "bytes32"
        },
        {
          "indexed": true,
          "name": "user",
          "type": "address"
        }
      ],
      "name": "CreateUser",
      "type": "event"
    },
    {
      "anonymous": false,
      "inputs": [
        {
          "indexed": true,
          "name": "previousOwner",
          "type": "address"
        },
        {
          "indexed": true,
          "name": "newOwner",
          "type": "address"
        }
      ],
      "name": "OwnershipTransferred",
      "type": "event"
    },
    {
      "anonymous": false,
      "inputs": [
        {
          "indexed": false,
          "name": "contractName",
          "type": "string"
        },
        {
          "indexed": false,
          "name": "migrationId",
          "type": "string"
        }
      ],
      "name": "Migrated",
      "type": "event"
    },
    {
      "constant": false,
      "inputs": [
        {
          "name": "_admin",
          "type": "address"
        }
      ],
      "name": "initialize",
      "outputs": [],
      "payable": false,
      "stateMutability": "nonpayable",
      "type": "function"
    },
    {
      "constant": false,
      "inputs": [],
      "name": "initialize",
      "outputs": [],
      "payable": false,
      "stateMutability": "nonpayable",
      "type": "function"
    },
    {
      "constant": false,
      "inputs": [
        {
          "name": "_id",
          "type": "bytes32"
        },
        {
          "name": "_pka",
          "type": "bytes32"
        },
        {
          "name": "_pkb",
          "type": "bytes32"
        }
      ],
      "name": "newUser",
      "outputs": [
        {
          "name": "",
          "type": "address"
        }
      ],
      "payable": true,
      "stateMutability": "payable",
      "type": "function"
    },
    {
      "constant": false,
      "inputs": [
        {
          "name": "_wallet",
          "type": "address"
        }
      ],
      "name": "withdraw",
      "outputs": [],
      "payable": false,
      "stateMutability": "nonpayable",
      "type": "function"
    },
    {
      "constant": false,
      "inputs": [
        {
          "name": "handle",
          "type": "bytes32"
        },
        {
          "name": "user",
          "type": "address"
        },
        {
          "name": "owner",
          "type": "address"
        }
      ],
      "name": "insert",
      "outputs": [],
      "payable": false,
      "stateMutability": "nonpayable",
      "type": "function"
    },
    {
      "constant": false,
      "inputs": [
        {
          "name": "handle",
          "type": "bytes32"
        },
        {
          "name": "user",
          "type": "address"
        }
      ],
      "name": "update",
      "outputs": [],
      "payable": false,
      "stateMutability": "nonpayable",
      "type": "function"
    },
    {
      "constant": false,
      "inputs": [
        {
          "name": "handle",
          "type": "bytes32"
        },
        {
          "name": "owner",
          "type": "address"
        }
      ],
      "name": "transfer",
      "outputs": [],
      "payable": false,
      "stateMutability": "nonpayable",
      "type": "function"
    },
    {
      "constant": false,
      "inputs": [
        {
          "name": "handle",
          "type": "bytes32"
        }
      ],
      "name": "remove",
      "outputs": [],
      "payable": false,
      "stateMutability": "nonpayable",
      "type": "function"
    },
    {
      "constant": true,
      "inputs": [
        {
          "name": "handle",
          "type": "bytes32"
        }
      ],
      "name": "getUser",
      "outputs": [
        {
          "name": "",
          "type": "address"
        }
      ],
      "payable": false,
      "stateMutability": "view",
      "type": "function"
    },
    {
      "constant": true,
      "inputs": [
        {
          "name": "handle",
          "type": "bytes32"
        }
      ],
      "name": "getOwner",
      "outputs": [
        {
          "name": "",
          "type": "address"
        }
      ],
      "payable": false,
      "stateMutability": "view",
      "type": "function"
    },
    {
      "constant": true,
      "inputs": [
        {
          "name": "handle",
          "type": "bytes32"
        }
      ],
      "name": "getKey",
      "outputs": [
        {
          "name": "",
          "type": "bytes32"
        },
        {
          "name": "",
          "type": "bytes32"
        }
      ],
      "payable": false,
      "stateMutability": "view",
      "type": "function"
    },
    {
      "constant": true,
      "inputs": [
        {
          "name": "handle",
          "type": "bytes32"
        }
      ],
      "name": "contains",
      "outputs": [
        {
          "name": "",
          "type": "bool"
        }
      ],
      "payable": false,
      "stateMutability": "view",
      "type": "function"
    }
  ],
  "bytecode": "0x608060405234801561001057600080fd5b5061347f806100206000396000f3006080604052600436106100e6576000357c0100000000000000000000000000000000000000000000000000000000900463ffffffff16806312aaac70146100eb5780631d1a696d1461014757806332c1680c146101905780634ae2ffc01461021057806351cff8d9146102615780636517579c146102a457806379ce9fac146103155780638129fc1c146103665780638da5cb5b1461037d57806395bc2673146103d4578063b046f56614610405578063c0bac1a814610476578063c4d66de81461053d578063deb931a214610580578063e1fa8e84146105f1578063f2fde38b14610695575b600080fd5b3480156100f757600080fd5b5061011a60048036038101908080356000191690602001909291905050506106d8565b60405180836000191660001916815260200182600019166000191681526020019250505060405180910390f35b34801561015357600080fd5b5061017660048036038101908080356000191690602001909291905050506107e4565b604051808215151515815260200191505060405180910390f35b6101ce600480360381019080803560001916906020019092919080356000191690602001909291908035600019169060200190929190505050610845565b604051808273ffffffffffffffffffffffffffffffffffffffff1673ffffffffffffffffffffffffffffffffffffffff16815260200191505060405180910390f35b34801561021c57600080fd5b5061025f6004803603810190808035600019169060200190929190803573ffffffffffffffffffffffffffffffffffffffff1690602001909291905050506109b0565b005b34801561026d57600080fd5b506102a2600480360381019080803573ffffffffffffffffffffffffffffffffffffffff169060200190929190505050610ad9565b005b3480156102b057600080fd5b506102d36004803603810190808035600019169060200190929190505050610c4c565b604051808273ffffffffffffffffffffffffffffffffffffffff1673ffffffffffffffffffffffffffffffffffffffff16815260200191505060405180910390f35b34801561032157600080fd5b506103646004803603810190808035600019169060200190929190803573ffffffffffffffffffffffffffffffffffffffff169060200190929190505050610ca8565b005b34801561037257600080fd5b5061037b610dd1565b005b34801561038957600080fd5b506103926111a2565b604051808273ffffffffffffffffffffffffffffffffffffffff1673ffffffffffffffffffffffffffffffffffffffff16815260200191505060405180910390f35b3480156103e057600080fd5b5061040360048036038101908080356000191690602001909291905050506111c8565b005b34801561041157600080fd5b506104746004803603810190808035600019169060200190929190803573ffffffffffffffffffffffffffffffffffffffff169060200190929190803573ffffffffffffffffffffffffffffffffffffffff1690602001909291905050506112c3565b005b34801561048257600080fd5b50610523600480360381019080803590602001908201803590602001908080601f0160208091040260200160405190810160405280939291908181526020018383808284378201915050505050509192919290803590602001908201803590602001908080601f0160208091040260200160405190810160405280939291908181526020018383808284378201915050505050509192919290505050611442565b604051808215151515815260200191505060405180910390f35b34801561054957600080fd5b5061057e600480360381019080803573ffffffffffffffffffffffffffffffffffffffff16906020019092919050505061152d565b005b34801561058c57600080fd5b506105af6004803603810190808035600019169060200190929190505050611908565b604051808273ffffffffffffffffffffffffffffffffffffffff1673ffffffffffffffffffffffffffffffffffffffff16815260200191505060405180910390f35b3480156105fd57600080fd5b506106206004803603810190808035600019169060200190929190505050611964565b604051808373ffffffffffffffffffffffffffffffffffffffff1673ffffffffffffffffffffffffffffffffffffffff1681526020018273ffffffffffffffffffffffffffffffffffffffff1673ffffffffffffffffffffffffffffffffffffffff1681526020019250505060405180910390f35b3480156106a157600080fd5b506106d6600480360381019080803573ffffffffffffffffffffffffffffffffffffffff1690602001909291905050506119c8565b005b60008060006106e6846107e4565b15156106f157600080fd5b60026000856000191660001916815260200190815260200160002060000160009054906101000a900473ffffffffffffffffffffffffffffffffffffffff1690508073ffffffffffffffffffffffffffffffffffffffff1663ac9e14f56040518163ffffffff167c01000000000000000000000000000000000000000000000000000000000281526004016040805180830381600087803b15801561079557600080fd5b505af11580156107a9573d6000803e3d6000fd5b505050506040513d60408110156107bf57600080fd5b8101908080519060200190929190805190602001909291905050509250925050915091565b60008060026000846000191660001916815260200190815260200160002060000160009054906101000a900473ffffffffffffffffffffffffffffffffffffffff1673ffffffffffffffffffffffffffffffffffffffff1614159050919050565b600080610850611fdc565b604051809103906000f08015801561086c573d6000803e3d6000fd5b5090508073ffffffffffffffffffffffffffffffffffffffff1663fb235c5c868686336040518563ffffffff167c0100000000000000000000000000000000000000000000000000000000028152600401808560001916600019168152602001846000191660001916815260200183600019166000191681526020018273ffffffffffffffffffffffffffffffffffffffff1673ffffffffffffffffffffffffffffffffffffffff168152602001945050505050600060405180830381600087803b15801561093a57600080fd5b505af115801561094e573d6000803e3d6000fd5b5050505061095d8582336112c3565b8073ffffffffffffffffffffffffffffffffffffffff1685600019167f4b025595bb311eac99f0a51d731fdb7c58bf01e61d89a0c7ffb2d137990ff13460405160405180910390a3809150509392505050565b6109b9826107e4565b15156109c457600080fd5b600073ffffffffffffffffffffffffffffffffffffffff168173ffffffffffffffffffffffffffffffffffffffff1614151515610a0057600080fd5b60026000836000191660001916815260200190815260200160002060010160009054906101000a900473ffffffffffffffffffffffffffffffffffffffff1673ffffffffffffffffffffffffffffffffffffffff163373ffffffffffffffffffffffffffffffffffffffff16141515610a7857600080fd5b8060026000846000191660001916815260200190815260200160002060000160006101000a81548173ffffffffffffffffffffffffffffffffffffffff021916908373ffffffffffffffffffffffffffffffffffffffff1602179055505050565b6000600160009054906101000a900473ffffffffffffffffffffffffffffffffffffffff1673ffffffffffffffffffffffffffffffffffffffff163373ffffffffffffffffffffffffffffffffffffffff16141515610b3757600080fd5b60003073ffffffffffffffffffffffffffffffffffffffff1631111515610b5d57600080fd5b600073ffffffffffffffffffffffffffffffffffffffff168273ffffffffffffffffffffffffffffffffffffffff1614151515610b9957600080fd5b3073ffffffffffffffffffffffffffffffffffffffff163190508173ffffffffffffffffffffffffffffffffffffffff166108fc829081150290604051600060405180830381858888f19350505050158015610bf9573d6000803e3d6000fd5b508173ffffffffffffffffffffffffffffffffffffffff167f7fcf532c15f0a6db0bd6d0e038bea71d30d808c7d98cb3bf7268a95bf5081b65826040518082815260200191505060405180910390a25050565b6000610c57826107e4565b1515610c6257600080fd5b60026000836000191660001916815260200190815260200160002060000160009054906101000a900473ffffffffffffffffffffffffffffffffffffffff169050919050565b610cb1826107e4565b1515610cbc57600080fd5b600073ffffffffffffffffffffffffffffffffffffffff168173ffffffffffffffffffffffffffffffffffffffff1614151515610cf857600080fd5b60026000836000191660001916815260200190815260200160002060010160009054906101000a900473ffffffffffffffffffffffffffffffffffffffff1673ffffffffffffffffffffffffffffffffffffffff163373ffffffffffffffffffffffffffffffffffffffff16141515610d7057600080fd5b8060026000846000191660001916815260200190815260200160002060010160006101000a81548173ffffffffffffffffffffffffffffffffffffffff021916908373ffffffffffffffffffffffffffffffffffffffff1602179055505050565b6040805190810160405280600a81526020017f4d696772617461626c65000000000000000000000000000000000000000000008152506040805190810160405280600581526020017f312e322e31000000000000000000000000000000000000000000000000000000815250610e7c826040805190810160405280600b81526020017f696e697469616c697a6564000000000000000000000000000000000000000000815250611b20565b610e868282611b20565b7fdd117a11c22118c9dee4b5a67ce578bc44529dce21ee0ccc439588fbb9fb4ea38282604051808060200180602001838103835285818151815260200191508051906020019080838360005b83811015610eed578082015181840152602081019050610ed2565b50505050905090810190601f168015610f1a5780820380516001836020036101000a031916815260200191505b50838103825284818151815260200191508051906020019080838360005b83811015610f53578082015181840152602081019050610f38565b50505050905090810190601f168015610f805780820380516001836020036101000a031916815260200191505b5094505050505060405180910390a160016000836040518082805190602001908083835b602083101515610fc95780518252602082019150602081019050602083039250610fa4565b6001836020036101000a0380198251168184511680821785525050505050509050019150509081526020016040518091039020826040518082805190602001908083835b602083101515611032578051825260208201915060208101905060208303925061100d565b6001836020036101000a038019825116818451168082178552505050505050905001915050908152602001604051809103902060006101000a81548160ff02191690831515021790555060016000836040518082805190602001908083835b6020831015156110b65780518252602082019150602081019050602083039250611091565b6001836020036101000a03801982511681845116808217855250505050505090500191505090815260200160405180910390206040805190810160405280600b81526020017f696e697469616c697a65640000000000000000000000000000000000000000008152506040518082805190602001908083835b602083101515611154578051825260208201915060208101905060208303925061112f565b6001836020036101000a038019825116818451168082178552505050505050905001915050908152602001604051809103902060006101000a81548160ff0219169083151502179055505050565b600160009054906101000a900473ffffffffffffffffffffffffffffffffffffffff1681565b6111d1816107e4565b15156111dc57600080fd5b60026000826000191660001916815260200190815260200160002060010160009054906101000a900473ffffffffffffffffffffffffffffffffffffffff1673ffffffffffffffffffffffffffffffffffffffff163373ffffffffffffffffffffffffffffffffffffffff1614151561125457600080fd5b600260008260001916600019168152602001908152602001600020600080820160006101000a81549073ffffffffffffffffffffffffffffffffffffffff02191690556001820160006101000a81549073ffffffffffffffffffffffffffffffffffffffff0219169055505050565b6112cc836107e4565b1515156112d857600080fd5b600073ffffffffffffffffffffffffffffffffffffffff168273ffffffffffffffffffffffffffffffffffffffff161415151561131457600080fd5b600073ffffffffffffffffffffffffffffffffffffffff168173ffffffffffffffffffffffffffffffffffffffff161415151561135057600080fd5b60408051908101604052808373ffffffffffffffffffffffffffffffffffffffff1681526020018273ffffffffffffffffffffffffffffffffffffffff1681525060026000856000191660001916815260200190815260200160002060008201518160000160006101000a81548173ffffffffffffffffffffffffffffffffffffffff021916908373ffffffffffffffffffffffffffffffffffffffff16021790555060208201518160010160006101000a81548173ffffffffffffffffffffffffffffffffffffffff021916908373ffffffffffffffffffffffffffffffffffffffff160217905550905050505050565b600080836040518082805190602001908083835b60208310151561147b5780518252602082019150602081019050602083039250611456565b6001836020036101000a0380198251168184511680821785525050505050509050019150509081526020016040518091039020826040518082805190602001908083835b6020831015156114e457805182526020820191506020810190506020830392506114bf565b6001836020036101000a038019825116818451168082178552505050505050905001915050908152602001604051809103902060009054906101000a900460ff16905092915050565b6040805190810160405280600381526020017f4d6b7400000000000000000000000000000000000000000000000000000000008152506040805190810160405280600581526020017f302e302e310000000000000000000000000000000000000000000000000000008152506115d8826040805190810160405280600b81526020017f696e697469616c697a6564000000000000000000000000000000000000000000815250611b20565b6115e28282611b20565b6115eb83611bc9565b7fdd117a11c22118c9dee4b5a67ce578bc44529dce21ee0ccc439588fbb9fb4ea38282604051808060200180602001838103835285818151815260200191508051906020019080838360005b83811015611652578082015181840152602081019050611637565b50505050905090810190601f16801561167f5780820380516001836020036101000a031916815260200191505b50838103825284818151815260200191508051906020019080838360005b838110156116b857808201518184015260208101905061169d565b50505050905090810190601f1680156116e55780820380516001836020036101000a031916815260200191505b5094505050505060405180910390a160016000836040518082805190602001908083835b60208310151561172e5780518252602082019150602081019050602083039250611709565b6001836020036101000a0380198251168184511680821785525050505050509050019150509081526020016040518091039020826040518082805190602001908083835b6020831015156117975780518252602082019150602081019050602083039250611772565b6001836020036101000a038019825116818451168082178552505050505050905001915050908152602001604051809103902060006101000a81548160ff02191690831515021790555060016000836040518082805190602001908083835b60208310151561181b57805182526020820191506020810190506020830392506117f6565b6001836020036101000a03801982511681845116808217855250505050505090500191505090815260200160405180910390206040805190810160405280600b81526020017f696e697469616c697a65640000000000000000000000000000000000000000008152506040518082805190602001908083835b6020831015156118b95780518252602082019150602081019050602083039250611894565b6001836020036101000a038019825116818451168082178552505050505050905001915050908152602001604051809103902060006101000a81548160ff021916908315150217905550505050565b6000611913826107e4565b151561191e57600080fd5b60026000836000191660001916815260200190815260200160002060010160009054906101000a900473ffffffffffffffffffffffffffffffffffffffff169050919050565b60026020528060005260406000206000915090508060000160009054906101000a900473ffffffffffffffffffffffffffffffffffffffff16908060010160009054906101000a900473ffffffffffffffffffffffffffffffffffffffff16905082565b600160009054906101000a900473ffffffffffffffffffffffffffffffffffffffff1673ffffffffffffffffffffffffffffffffffffffff163373ffffffffffffffffffffffffffffffffffffffff16141515611a2457600080fd5b600073ffffffffffffffffffffffffffffffffffffffff168173ffffffffffffffffffffffffffffffffffffffff1614151515611a6057600080fd5b8073ffffffffffffffffffffffffffffffffffffffff16600160009054906101000a900473ffffffffffffffffffffffffffffffffffffffff1673ffffffffffffffffffffffffffffffffffffffff167f8be0079c531659141344cd1fd0a4f28419497f9722a3daafe3b4186f6b6457e060405160405180910390a380600160006101000a81548173ffffffffffffffffffffffffffffffffffffffff021916908373ffffffffffffffffffffffffffffffffffffffff16021790555050565b611b2a8282611442565b151515611bc5576040517f08c379a00000000000000000000000000000000000000000000000000000000081526004018080602001828103825260328152602001807f52657175657374656420746172676574206d6967726174696f6e20494420686181526020017f7320616c7265616479206265656e2072756e000000000000000000000000000081525060400191505060405180910390fd5b5050565b6040805190810160405280600781526020017f4f776e61626c65000000000000000000000000000000000000000000000000008152506040805190810160405280600581526020017f312e392e30000000000000000000000000000000000000000000000000000000815250611c74826040805190810160405280600b81526020017f696e697469616c697a6564000000000000000000000000000000000000000000815250611b20565b611c7e8282611b20565b82600160006101000a81548173ffffffffffffffffffffffffffffffffffffffff021916908373ffffffffffffffffffffffffffffffffffffffff1602179055507fdd117a11c22118c9dee4b5a67ce578bc44529dce21ee0ccc439588fbb9fb4ea38282604051808060200180602001838103835285818151815260200191508051906020019080838360005b83811015611d26578082015181840152602081019050611d0b565b50505050905090810190601f168015611d535780820380516001836020036101000a031916815260200191505b50838103825284818151815260200191508051906020019080838360005b83811015611d8c578082015181840152602081019050611d71565b50505050905090810190601f168015611db95780820380516001836020036101000a031916815260200191505b5094505050505060405180910390a160016000836040518082805190602001908083835b602083101515611e025780518252602082019150602081019050602083039250611ddd565b6001836020036101000a0380198251168184511680821785525050505050509050019150509081526020016040518091039020826040518082805190602001908083835b602083101515611e6b5780518252602082019150602081019050602083039250611e46565b6001836020036101000a038019825116818451168082178552505050505050905001915050908152602001604051809103902060006101000a81548160ff02191690831515021790555060016000836040518082805190602001908083835b602083101515611eef5780518252602082019150602081019050602083039250611eca565b6001836020036101000a03801982511681845116808217855250505050505090500191505090815260200160405180910390206040805190810160405280600b81526020017f696e697469616c697a65640000000000000000000000000000000000000000008152506040518082805190602001908083835b602083101515611f8d5780518252602082019150602081019050602083039250611f68565b6001836020036101000a038019825116818451168082178552505050505050905001915050908152602001604051809103902060006101000a81548160ff021916908315150217905550505050565b60405161146780611fed833901905600608060405234801561001057600080fd5b50611447806100206000396000f3006080604052600436106100ba576000357c0100000000000000000000000000000000000000000000000000000000900463ffffffff1680631a466b2f146100bf57806320149d4a146100fe5780638129fc1c146101315780638da5cb5b14610148578063a496c0691461019f578063a7f43779146101d2578063ac9e14f5146101e9578063af640d0f1461022b578063c0bac1a81461025e578063c4d66de814610325578063f2fde38b14610368578063fb235c5c146103ab575b600080fd5b3480156100cb57600080fd5b506100fc60048036038101908080356000191690602001909291908035600019169060200190929190505050610418565b005b34801561010a57600080fd5b5061011361048e565b60405180826000191660001916815260200191505060405180910390f35b34801561013d57600080fd5b50610146610494565b005b34801561015457600080fd5b5061015d610865565b604051808273ffffffffffffffffffffffffffffffffffffffff1673ffffffffffffffffffffffffffffffffffffffff16815260200191505060405180910390f35b3480156101ab57600080fd5b506101b461088b565b60405180826000191660001916815260200191505060405180910390f35b3480156101de57600080fd5b506101e7610891565b005b3480156101f557600080fd5b506101fe610906565b60405180836000191660001916815260200182600019166000191681526020019250505060405180910390f35b34801561023757600080fd5b50610240610917565b60405180826000191660001916815260200191505060405180910390f35b34801561026a57600080fd5b5061030b600480360381019080803590602001908201803590602001908080601f0160208091040260200160405190810160405280939291908181526020018383808284378201915050505050509192919290803590602001908201803590602001908080601f016020809104026020016040519081016040528093929190818152602001838380828437820191505050505050919291929050505061091d565b604051808215151515815260200191505060405180910390f35b34801561033157600080fd5b50610366600480360381019080803573ffffffffffffffffffffffffffffffffffffffff169060200190929190505050610a08565b005b34801561037457600080fd5b506103a9600480360381019080803573ffffffffffffffffffffffffffffffffffffffff169060200190929190505050610e1b565b005b3480156103b757600080fd5b50610416600480360381019080803560001916906020019092919080356000191690602001909291908035600019169060200190929190803573ffffffffffffffffffffffffffffffffffffffff169060200190929190505050610f73565b005b600160009054906101000a900473ffffffffffffffffffffffffffffffffffffffff1673ffffffffffffffffffffffffffffffffffffffff163373ffffffffffffffffffffffffffffffffffffffff1614151561047457600080fd5b816003816000191690555080600481600019169055505050565b60045481565b6040805190810160405280600a81526020017f4d696772617461626c65000000000000000000000000000000000000000000008152506040805190810160405280600581526020017f312e322e3100000000000000000000000000000000000000000000000000000081525061053f826040805190810160405280600b81526020017f696e697469616c697a6564000000000000000000000000000000000000000000815250611372565b6105498282611372565b7fdd117a11c22118c9dee4b5a67ce578bc44529dce21ee0ccc439588fbb9fb4ea38282604051808060200180602001838103835285818151815260200191508051906020019080838360005b838110156105b0578082015181840152602081019050610595565b50505050905090810190601f1680156105dd5780820380516001836020036101000a031916815260200191505b50838103825284818151815260200191508051906020019080838360005b838110156106165780820151818401526020810190506105fb565b50505050905090810190601f1680156106435780820380516001836020036101000a031916815260200191505b5094505050505060405180910390a160016000836040518082805190602001908083835b60208310151561068c5780518252602082019150602081019050602083039250610667565b6001836020036101000a0380198251168184511680821785525050505050509050019150509081526020016040518091039020826040518082805190602001908083835b6020831015156106f557805182526020820191506020810190506020830392506106d0565b6001836020036101000a038019825116818451168082178552505050505050905001915050908152602001604051809103902060006101000a81548160ff02191690831515021790555060016000836040518082805190602001908083835b6020831015156107795780518252602082019150602081019050602083039250610754565b6001836020036101000a03801982511681845116808217855250505050505090500191505090815260200160405180910390206040805190810160405280600b81526020017f696e697469616c697a65640000000000000000000000000000000000000000008152506040518082805190602001908083835b60208310151561081757805182526020820191506020810190506020830392506107f2565b6001836020036101000a038019825116818451168082178552505050505050905001915050908152602001604051809103902060006101000a81548160ff0219169083151502179055505050565b600160009054906101000a900473ffffffffffffffffffffffffffffffffffffffff1681565b60035481565b600160009054906101000a900473ffffffffffffffffffffffffffffffffffffffff1673ffffffffffffffffffffffffffffffffffffffff163373ffffffffffffffffffffffffffffffffffffffff161415156108ed57600080fd5b3373ffffffffffffffffffffffffffffffffffffffff16ff5b600080600354600454915091509091565b60025481565b600080836040518082805190602001908083835b6020831015156109565780518252602082019150602081019050602083039250610931565b6001836020036101000a0380198251168184511680821785525050505050509050019150509081526020016040518091039020826040518082805190602001908083835b6020831015156109bf578051825260208201915060208101905060208303925061099a565b6001836020036101000a038019825116818451168082178552505050505050905001915050908152602001604051809103902060009054906101000a900460ff16905092915050565b6040805190810160405280600781526020017f4f776e61626c65000000000000000000000000000000000000000000000000008152506040805190810160405280600581526020017f312e392e30000000000000000000000000000000000000000000000000000000815250610ab3826040805190810160405280600b81526020017f696e697469616c697a6564000000000000000000000000000000000000000000815250611372565b610abd8282611372565b82600160006101000a81548173ffffffffffffffffffffffffffffffffffffffff021916908373ffffffffffffffffffffffffffffffffffffffff1602179055507fdd117a11c22118c9dee4b5a67ce578bc44529dce21ee0ccc439588fbb9fb4ea38282604051808060200180602001838103835285818151815260200191508051906020019080838360005b83811015610b65578082015181840152602081019050610b4a565b50505050905090810190601f168015610b925780820380516001836020036101000a031916815260200191505b50838103825284818151815260200191508051906020019080838360005b83811015610bcb578082015181840152602081019050610bb0565b50505050905090810190601f168015610bf85780820380516001836020036101000a031916815260200191505b5094505050505060405180910390a160016000836040518082805190602001908083835b602083101515610c415780518252602082019150602081019050602083039250610c1c565b6001836020036101000a0380198251168184511680821785525050505050509050019150509081526020016040518091039020826040518082805190602001908083835b602083101515610caa5780518252602082019150602081019050602083039250610c85565b6001836020036101000a038019825116818451168082178552505050505050905001915050908152602001604051809103902060006101000a81548160ff02191690831515021790555060016000836040518082805190602001908083835b602083101515610d2e5780518252602082019150602081019050602083039250610d09565b6001836020036101000a03801982511681845116808217855250505050505090500191505090815260200160405180910390206040805190810160405280600b81526020017f696e697469616c697a65640000000000000000000000000000000000000000008152506040518082805190602001908083835b602083101515610dcc5780518252602082019150602081019050602083039250610da7565b6001836020036101000a038019825116818451168082178552505050505050905001915050908152602001604051809103902060006101000a81548160ff021916908315150217905550505050565b600160009054906101000a900473ffffffffffffffffffffffffffffffffffffffff1673ffffffffffffffffffffffffffffffffffffffff163373ffffffffffffffffffffffffffffffffffffffff16141515610e7757600080fd5b600073ffffffffffffffffffffffffffffffffffffffff168173ffffffffffffffffffffffffffffffffffffffff1614151515610eb357600080fd5b8073ffffffffffffffffffffffffffffffffffffffff16600160009054906101000a900473ffffffffffffffffffffffffffffffffffffffff1673ffffffffffffffffffffffffffffffffffffffff167f8be0079c531659141344cd1fd0a4f28419497f9722a3daafe3b4186f6b6457e060405160405180910390a380600160006101000a81548173ffffffffffffffffffffffffffffffffffffffff021916908373ffffffffffffffffffffffffffffffffffffffff16021790555050565b6040805190810160405280600481526020017f55736572000000000000000000000000000000000000000000000000000000008152506040805190810160405280600581526020017f302e302e3100000000000000000000000000000000000000000000000000000081525061101e826040805190810160405280600b81526020017f696e697469616c697a6564000000000000000000000000000000000000000000815250611372565b6110288282611372565b85600281600019169055508460038160001916905550836004816000191690555061105283610a08565b7fdd117a11c22118c9dee4b5a67ce578bc44529dce21ee0ccc439588fbb9fb4ea38282604051808060200180602001838103835285818151815260200191508051906020019080838360005b838110156110b957808201518184015260208101905061109e565b50505050905090810190601f1680156110e65780820380516001836020036101000a031916815260200191505b50838103825284818151815260200191508051906020019080838360005b8381101561111f578082015181840152602081019050611104565b50505050905090810190601f16801561114c5780820380516001836020036101000a031916815260200191505b5094505050505060405180910390a160016000836040518082805190602001908083835b6020831015156111955780518252602082019150602081019050602083039250611170565b6001836020036101000a0380198251168184511680821785525050505050509050019150509081526020016040518091039020826040518082805190602001908083835b6020831015156111fe57805182526020820191506020810190506020830392506111d9565b6001836020036101000a038019825116818451168082178552505050505050905001915050908152602001604051809103902060006101000a81548160ff02191690831515021790555060016000836040518082805190602001908083835b602083101515611282578051825260208201915060208101905060208303925061125d565b6001836020036101000a03801982511681845116808217855250505050505090500191505090815260200160405180910390206040805190810160405280600b81526020017f696e697469616c697a65640000000000000000000000000000000000000000008152506040518082805190602001908083835b60208310151561132057805182526020820191506020810190506020830392506112fb565b6001836020036101000a038019825116818451168082178552505050505050905001915050908152602001604051809103902060006101000a81548160ff021916908315150217905550505050505050565b61137c828261091d565b151515611417576040517f08c379a00000000000000000000000000000000000000000000000000000000081526004018080602001828103825260328152602001807f52657175657374656420746172676574206d6967726174696f6e20494420686181526020017f7320616c7265616479206265656e2072756e000000000000000000000000000081525060400191505060405180910390fd5b50505600a165627a7a72305820d4b574509e2b5cf5b4909129b2c3df695c5c0857b2881c41c7c46cf92238f2e40029a165627a7a72305820f2fcf6c07ee386e5659c6da48411876d3d504f5d93824f3d7940c55c33138e0b0029",
  "source": "pragma solidity ^0.4.23;\n\nimport \"openzeppelin-zos/contracts/ownership/Ownable.sol\";\nimport \"./User.sol\";\n\n/**\n * @title Mkt is a tool for Self Sovereign Social Networking\n */\ncontract Mkt is Ownable {\n\n    // Accounts indexed into structs\n    struct Account {\n        address user;\n        address owner;\n    }\n\n    // Registry of all users\n    mapping (bytes32 => Account) public register;\n\n    // Logs Withdrawals and User Creations\n    event Withdrawal(address indexed wallet, uint256 value);\n    event CreateUser(bytes32 indexed id, address indexed user);\n\n    /**\n     * @dev Constructor in zOS\n     * Creates and stores a reference to the user register\n     */\n    function initialize(address _admin) isInitializer(\"Mkt\", \"0.0.1\") public {\n        Ownable.initialize(_admin);\n    }\n\n    /**\n     * @dev Insert a new user into the user registry, owned by sender\n     */\n    function newUser(bytes32 _id, bytes32 _pka, bytes32 _pkb) public payable returns (address) {\n        // require(msg.value > 5 finney);\n        User user = new User();\n        user.initialize(_id, _pka, _pkb, msg.sender);\n        insert(_id, address(user), msg.sender);\n        emit CreateUser(_id, address(user));\n        return address(user);\n    }\n\n    /**\n     * @dev Transfer funds from contract to owner's wallet\n     */\n    function withdraw(address _wallet) public onlyOwner {\n        require(address(this).balance > 0);\n        require(_wallet != address(0));\n        uint256 value = address(this).balance;\n        _wallet.transfer(value);\n        emit Withdrawal(_wallet, value);\n    }\n\n    /**\n     * @dev Insert a new user into the registry\n     */\n    function insert(bytes32 handle, address user, address owner) public {\n        require(!contains(handle));\n        require(user != address(0));\n        require(owner != address(0));\n        register[handle] = Account(user, owner);\n    }\n\n    /**\n     * @dev Update the user that the hande points to\n     */\n    function update(bytes32 handle, address user) public {\n        require(contains(handle));\n        require(user != address(0));\n        require(msg.sender == register[handle].owner);\n        register[handle].user = user;\n    }\n\n    /**\n     * @dev Transfer a new user into the registry\n     */\n    function transfer(bytes32 handle, address owner) public {\n        require(contains(handle));\n        require(owner != address(0));\n        require(msg.sender == register[handle].owner);\n        register[handle].owner = owner;\n    }\n\n    /**\n     * @dev Remove a new user from the registry\n     */\n    function remove(bytes32 handle) public {\n        require(contains(handle));\n        require(msg.sender == register[handle].owner);\n        delete register[handle];\n    }\n\n    /**\n     * @dev Get user contract address from the registry\n     */\n    function getUser(bytes32 handle) public view returns (address) {\n        require(contains(handle));\n        return register[handle].user;\n    }\n\n    /**\n     * @dev Get owner of a particular handle\n     */\n    function getOwner(bytes32 handle) public view returns (address) {\n        require(contains(handle));\n        return register[handle].owner;\n    }\n\n    /**\n     * @dev Get public key for a particular handle\n     */\n    function getKey(bytes32 handle) public view returns (bytes32, bytes32) {\n        require(contains(handle));\n        User user = User(register[handle].user);\n        return (user.getPK());\n    }\n\n    /**\n     * @dev Check if user is in registry\n     */\n    function contains(bytes32 handle) public view returns (bool) {\n        return register[handle].user != 0;\n    }\n}\n",
  "sourcePath": "/Users/albert/Projects/mkt/contracts/Mkt.sol",
  "compiler": {
    "name": "solc",
    "version": "0.4.24+commit.e67f0147.Emscripten.clang"
  },
  "schemaVersion": "2.0.1",
  "updatedAt": "2018-09-21T02:54:57.775Z"
}